:100000000C945F000C9487000C9487000C9487007C
:100010000C9487000C9487000C9487000C941102B8
:100020000C9487000C9487000C9487000C94870034
:100030000C9487000C9487000C9487000C94870024
:100040000C94B1050C9487000C9487000C948700E5
:100050000C9487000C9487000C9487000C94870004
:100060000C94FB050C94870000000000240027007E
:100070002A0002000000080002010000030407003B
:100080000000000000000001020408102040800170
:1000900002040810200102040810200000000025BE
:1000A0000028002B000404040404040404020202D7
:1000B00002020203030303030300FF0BEF0B1124EF
:1000C0001FBECFEFD8E0DEBFCDBF11E0A0E0B1E0B2
:1000D000E4E7FCE102C005900D92AC32B107D9F71C
:1000E00022E0ACE2B1E001C01D92AE30B207E1F710
:1000F00010E0CEE5D0E004C02197FE010E94FA0C8A
:10010000CD35D107C9F70E94200B0C942D0E0C940D
:100110000000E091D301F091D401309729F01092C2
:10012000CE011092CD0109940895CF93DF93AC01D5
:10013000E091D101F091D2013097F1F09091D0018E
:100140008091CF019817C0F090E0292F30E026175A
:10015000370754F4D901A05DBE4FEA01C20FD31F87
:1001600028812C939F5FF1CF1092D0016093CF0133
:10017000CB01DF91CF910994DF91CF910895CF9278
:10018000DF92EF92FF920F931F93CF93DF936C0157
:100190007A018B01C0E0D0E0CE15DF0581F0D801F7
:1001A0006D918D01D601ED91FC910190F081E02DD2
:1001B000C6010995892B11F02196EECF7E01C7016A
:1001C000DF91CF911F910F91FF90EF90DF90CF9033
:1001D000089540917601262F30E0240F311D213201
:1001E0003105DCF420919A012430C9F4FC0180E04F
:1001F00090E0861758F4309176012191DC01AA5ADB
:10020000BE4FA30FB11D2C930196F3CF80917601C1
:10021000680F6093760180E0089581E0089582E0A0
:1002200008950895E091D0018091CF01E81730F44E
:10023000F0E0E05DFE4F808190E008958FEF9FEF4A
:1002400008959091D0018091CF01981750F4E92F33
:10025000F0E0E05DFE4F208130E09F5F9093D001A1
:1002600002C02FEF3FEFC90108958091CF0190E0C8
:100270002091D001821B91090895CF93DF93CB0188
:10028000EA01642F0E94E900CE01DF91CF91089529
:10029000CF93DF9300D000D0CDB7DEB780912E0191
:1002A00090912F0189839A83330F220B322F2B8356
:1002B000990F880B982F8C8344E050E0BE016F5F4C
:1002C0007F4F8CED91E00E943D010F900F900F90B9
:1002D0000F90DF91CF910895CF93DF931F92CDB709
:1002E000DEB7698361E0CE0101960E94E90081E0FA
:1002F00090E00F90DF91CF910895089580E090E015
:1003000008950E94210ECF93DF930E94CD09C0E093
:10031000D0E040E050E0BA01CE010E94AC0A0E9459
:10032000D7092196C432D105A1F7DF91CF910C9462
:10033000CD0990E0FC01ED58FF4F2491FC01E957F5
:10034000FF4F3491FC01EB55FF4FE491EE2309F48C
:100350003CC0222339F1233091F038F42130A9F048
:10036000223001F584B58F7D12C0273091F02830FE
:10037000A1F02430B9F4809180008F7D03C080917A
:1003800080008F77809380000DC084B58F7784BD07
:1003900009C08091B0008F7703C08091B0008F7D3D
:1003A0008093B000F0E0EE0FFF1FE556FF4FA591E0
:1003B000B4919FB7F894611104C08C9130953823A3
:1003C00002C0EC913E2B3C939FBF08959091000199
:1003D000891324C0E2E7F0E0E4919FEF90930001DD
:1003E000E130B9F098F0E230C9F4909170009D7F4F
:1003F0009093700091E09093B0009091B100987F3D
:1004000094609093B1001092B30008C010926E00F7
:1004100005C090916F009D7F90936F0060E00C94F9
:1004200099011F920F920FB60F9211242F933F93B1
:100430004F935F936F937F938F939F93AF93BF93EC
:10044000EF93FF938091D8019091D901A091DA01A7
:10045000B091DB01892B8A2B8B2B51F19091D50127
:10046000E091D601F091D701808189278083809126
:10047000D8019091D901A091DA01B091DB01181651
:1004800019061A061B06C4F48091D8019091D9016F
:10049000A091DA01B091DB010197A109B109809324
:1004A000D8019093D901A093DA01B093DB0104C085
:1004B000809100010E94E601FF91EF91BF91AF9101
:1004C0009F918F917F916F915F914F913F912F916C
:1004D0000F900FBE0F901F90189510929A0181E017
:1004E00080939C0110929B0161E082E10E9499013E
:1004F00061E083E10E949901E9EBF0E080818E7F69
:10050000808380818D7F808388E48093B80085E438
:100510008093BC000895CF93DF9385ED8093BC005A
:100520008091520190915301A0915401B0915501D5
:100530000796A11DB11D23E0B695A79597958795C0
:100540002A95D1F72091BC0024FF37C04091520179
:10055000509153016091540170915501452B462BE8
:10056000472B81F30097A105B10541F02AE22A95B6
:10057000F1F700C00197A109B109E4CF80915101C1
:1005800091E0909350018823D1F0C091B800D091B0
:10059000BA008091BC008A7B8093BC0060E082E15D
:1005A0000E94990160E083E10E9499010E946D021E
:1005B000D093BA00C093B80002C010929A01DF91A4
:1005C000CF910895CF93DF93D62FC42F682F8FE05C
:1005D0000E9499016D2F80E10E9499016C2F81E1A9
:1005E000DF91CF910C949901CF93DF9360E08AE083
:1005F0000E94990161E084E00E949901C4E1D0E089
:1006000080E00E9483072197D9F7DF91CF91089569
:10061000CF93DF9390E0FC01E957FF4F2491FC0159
:10062000EB55FF4F8491882361F190E0880F991F6B
:10063000FC01E859FF4FC591D491FC01E556FF4FED
:10064000A591B491611109C09FB7F8948881209554
:1006500082238883EC912E230BC0623061F49FB714
:10066000F8948881322F309583238883EC912E2B48
:100670002C939FBF06C08FB7F894E8812E2B288358
:100680008FBFDF91CF9108953FB7F8948091C50156
:100690009091C601A091C701B091C80126B5A89B51
:1006A00005C02F3F19F00196A11DB11D3FBFBA2F04
:1006B000A92F982F8827820F911DA11DB11DBC0164
:1006C000CD0142E0660F771F881F991F4A95D1F729
:1006D00008958F929F92AF92BF92CF92DF92EF9246
:1006E000FF926B017C010E9444034B015C01C11429
:1006F000D104E104F104F1F00E944403DC01CB01D8
:1007000088199909AA09BB09883E9340A105B1053A
:1007100070F321E0C21AD108E108F10888EE880ED2
:1007200083E0981EA11CB11CC114D104E104F104A2
:1007300019F7DDCFFF90EF90DF90CF90BF90AF9093
:100740009F908F900895CF92DF92EF92FF926C016D
:1007500040E060E081E00E94E2020D2C000CEE0817
:10076000FF08C701B6010E94690340E061E080E034
:100770000E94E202C701B6010E94690341E060E005
:1007800080E00E94E202C701B6010E94690340E0D6
:1007900060E080E0FF90EF90DF90CF900C94E20259
:1007A0004F925F926F927F928F929F92AF92BF9281
:1007B000CF92DF92EF92FF920F931F93CF93DF932D
:1007C000CDB7DEB760970FB6F894DEBF0FBECDBFD2
:1007D00053E2452E512C612C712C68E0862E912C11
:1007E0009091CF018091D001981709F4A3C18CEDAD
:1007F00091E00E9421017C0190932F0180932E01B2
:100800008CED91E00E9421018C0190932D01809349
:100810002C0181E0E816F10469F460E087E00E94B1
:1008200099010E94F40261E087E00E9499010E9410
:10083000830175C092E0E916F10409F070C060E030
:1008400087E00E94990160E086E00E9499010739E3
:1008500011051CF086E990E001C0C8010E9429073B
:1008600062E370E080E090E00E94690361E084E070
:100870000E94990144E1E42EF12C8FEF0E9483073E
:1008800081E0E81AF108C9F761E087E00E94990168
:1008900024E130E0D8010E94DF0CA30192010E9404
:1008A0007B0C69017A010E94CD0994E6C916D10436
:1008B0002CF5B701A6015527662777277A01DD2495
:1008C000CC24B62FA52F942F8827C82AD92AEA2A04
:1008D000FB2AC42AD52AE62AF72A00E010E0B7014D
:1008E000A601C8010E94AC0A0E94D7090F5F1F4FE2
:1008F00004321105A1F70E94CD0911C000E010E0FB
:100900004BE45BE46BE470E0C8010E94AC0A0E9417
:10091000D7090F5F1F4F0432110591F7ECCF0091FB
:100920002E0110912F0106301105C1F464E170E031
:1009300080E090E00E946903E0902C01F0902D018E
:100940000E94CD0946E956E966E970E0C7010E94B8
:10095000AC0A0E94D7090E94CD0993C0033011054B
:1009600009F076C062E370E080E090E00E946903E5
:10097000C0902C01D0902D010E94CD09C601B80174
:100980000E94CB0C9B01009729F440E050E06FEFF0
:1009900070E00EC08130910529F440E05FEF60E027
:1009A00070E006C0029739F44FEF50E060E070E06D
:1009B000C9010E94AC0A0E94D7090E94CD098BE4AC
:1009C00090E00E94290780E1E7E0F1E0DE01119666
:1009D00001900D928A95E1F760E087E00E9499010D
:1009E0007601D7FE03C087E0E80EF11C93E0F59492
:1009F000E7949A95E1F757019FEFA91AB90A84E1A4
:100A0000A816B10424F480E00E948307F5CFC60144
:100A1000B4010E94CB0CFC01EE0FFF1F81E090E0BF
:100A20008C0F9D1FE80FF91F80810E948307C12C46
:100A3000D12CCE14DF043CF480E00E9483079FEFAA
:100A4000C91AD90AF6CF61E087E00E94990119C05E
:100A50000530110529F460E084E00E9499011BC073
:100A60000830110539F480912C0190912D010E94DC
:100A70009C0724C00035110521F489E00E94E6019D
:100A800030C00930110539F480912C0190912D016D
:100A90000E94A30326C00A30110581F480912C0125
:100AA00090912D01009729F460E085E00E94990162
:100AB00018C0019709F094CE61E00FC0011511052F
:100AC00061F56AE070E080E090E00E94690340E038
:100AD00060E080E00E94E20260E085E00E9499010F
:100AE0007FCE0C30110549F464E170E080E090E0C5
:100AF0000E94690340E061E00CC00D30110509F06F
:100B00006FCE64E170E080E090E00E94690341E014
:100B100060E080E00E94E20263CE0B30110509F72D
:100B200064E170E080E090E00E94690340E060E0F2
:100B300081E0F0CF60960FB6F894DEBF0FBECDBF58
:100B4000DF91CF911F910F91FF90EF90DF90CF90A9
:100B5000BF90AF909F908F907F906F905F904F90DD
:100B600008951F920F920FB60F9211242F933F9367
:100B70008F939F93AF93BF938091C1019091C201D6
:100B8000A091C301B091C4013091C00123E0230FB3
:100B90002D3720F40196A11DB11D05C026E8230FB5
:100BA0000296A11DB11D2093C0018093C1019093B5
:100BB000C201A093C301B093C4018091C50190917B
:100BC000C601A091C701B091C8010196A11DB11D38
:100BD0008093C5019093C601A093C701B093C8014B
:100BE000BF91AF919F918F913F912F910F900FBE29
:100BF0000F901F9018951F920F920FB60F9211240D
:100C00002F933F934F935F936F937F938F939F9314
:100C1000AF93BF93EF93FF938091B900887F8036A5
:100C200009F49CC068F5883209F45BC090F4803107
:100C300009F454C038F4882309F4F6C0883009F464
:100C40004DC0F6C0883109F44CC0803209F45DC053
:100C5000EFC0803409F468C048F4803309F455C00B
:100C6000883309F0E5C080939901D8C0803509F434
:100C70004FC0883509F45DC0883409F0D9C0D6C0AA
:100C8000883909F4C7C0A8F4883709F467C038F474
:100C9000883609F463C0803709F460C0C9C0883859
:100CA00009F4B8C0803909F45FC0803809F0C0C0C9
:100CB0005BC0803B09F486C038F4803A09F466C012
:100CC000883A09F47FC0B4C0803C09F4A7C0883CCE
:100CD00009F4A4C0883B09F48AC0AAC08091BF016E
:100CE00010C09091BE018091BD01981770F5E09100
:100CF000BE0181E08E0F8093BE01F0E0E356FE4F0F
:100D000080818093BB0085EC86C0809399018EC062
:100D1000E091BE0181E08E0F8093BE018091BB0007
:100D2000F0E0E356FE4F80839091BE018091BD01BB
:100D30006EC0E091BE0181E08E0F8093BE01809174
:100D4000BB00F0E0E356FE4F808380919C0181114F
:100D50006DC081E080939B0184EA61C083E0809351
:100D60009A0110929801CFCF80919801803208F0BB
:100D700051C0E091980181E08E0F8093980180919D
:100D8000BB00F0E0E858FE4F8083BDCF85EC809338
:100D9000BC0010929A0180919801803230F4E09169
:100DA0009801F0E0E858FE4F10826091980170E0E1
:100DB000E091C901F091CA0188E791E0099510928C
:100DC000980136C084E080939A01109277011092C6
:100DD0007601E091CB01F091CC01099580917601EB
:100DE000811105C081E08093760110925601E09157
:100DF000770181E08E0F80937701F0E0EA5AFE4F91
:100E000080818093BB009091770180917601981743
:100E100008F479CF85E88093BC000AC085EC809304
:100E2000BC0010929A0104C0109299010E948B029A
:100E3000FF91EF91BF91AF919F918F917F916F91B2
:100E40005F914F913F912F910F900FBE0F901F9088
:100E50001895CF93DF93EC0161E08AE00E940803CC
:100E6000209711F460E004C0CF3FD10531F461E078
:100E70008AE0DF91CF910C949901EDE7F0E0E491E5
:100E8000E330F9F048F4E130B9F0E230A1F584B58F
:100E9000806284BDC8BD34C0E730E9F0E83019F1A4
:100EA000E43049F580918000806280938000D09387
:100EB0008B00C0938A0024C084B5806884BDC7BD00
:100EC0001FC080918000806880938000D09389004B
:100ED000C093880015C08091B00080688093B000F6
:100EE000C093B3000DC08091B00080628093B000C9
:100EF000C093B40005C0C038D1050CF0B8CFB2CF54
:100F0000DF91CF910895CF93DF93D82FC8E06D2F55
:100F1000661F6627661F8EE00E949901DD0F61E063
:100F200088E00E94990160E088E00E949901C15028
:100F300071F7DF91CF9108954F925F926F927F92F8
:100F40008F929F92AF92BF92CF92DF92EF92FF92D9
:100F50001F93CF93DF93EC0180910001893021F042
:100F60008F3F09F00AC204C0E2E7F0E014916FC0BD
:100F700089E080930001E2E7F0E014911F3F09F45B
:100F8000FCC1113009F440C030F1123009F05FC0EB
:100F90001092B0001092B1008091B00082608093F6
:100FA000B0008091B10081608093B100EEEAF0E082
:100FB000E491F0E0EE0FFF1FE556FF4F859194910D
:100FC0009093D7018093D601E0E9F0E0E491E093BB
:100FD000D50112E0CDC114BC15BC84B5826084BDBE
:100FE00085B5816085BDEEEAF0E0E491F0E0EE0FBA
:100FF000FF1FE556FF4F85919491E0E9F0E0E49101
:10100000E093010210E0B4C11092800010928100C0
:10101000809181008860809381008091810081604F
:1010200080938100EEEAF0E0E491F0E0EE0FFF1F24
:10103000E556FF4F85919491E0E9F0E0E491E0936B
:10104000000261E089E00E94080311E0B1C017FDD1
:1010500094C161E089E00E940803812F8D7F09F02F
:10106000A7C04E01A12CB12C60E072E18AE790E0AC
:10107000A50194010E947B0C29013A0169017A01C2
:1010800021E0C21AD108E108F1088FEFC816D10497
:10109000E104F10409F008F44BC060E472E48FE06D
:1010A00090E0A50194010E947B0C69017A0181E026
:1010B000C81AD108E108F108123001F52FEFC21665
:1010C000D104E104F10409F008F4EAC060E970ED2C
:1010D00083E090E0A50194010E947B0C69017A01F4
:1010E00081E0C81AD108E108F1082FEFC216D10437
:1010F000E104F10409F030F583E053C08FEFC81626
:10110000D104E104F104B1F0A8F068E478EE81E0E4
:1011100090E0A50194010E947B0C69017A0181E0B5
:10112000C81AD108E108F108112309F4EEC0E4C09F
:1011300081E001C082E0111134C095B5987F892B00
:1011400085BD68C068E478EE81E090E0A501940177
:101150000E947B0C69017A0181E0C81AD108E1087C
:10116000F1082FEFC216D104E104F10409F008F4EC
:1011700095C064E274EF80E090E0A50194010E94C4
:101180007B0C69017A0181E0C81AD108E108F108F5
:101190002FEFC216D104E104F10411F008F082C06F
:1011A00085E09091B100987F892B8093B10032C087
:1011B0004E01A12CB12C60E072E18AE790E0A5011C
:1011C00094010E947B0C69017A0181E0C81AD10860
:1011D000E108F108C114D10421E0E206F10488F02D
:1011E00068E478EE81E090E0A50194010E947B0C18
:1011F00069017A0181E0C81AD108E108F10883E0A9
:1012000001C081E0113031F490918100987F892BE9
:10121000809381009E01220F331FA4E6B0E00E945C
:10122000BC0C28EE33E040E050E00E949A0C1130F4
:1012300099F0123019F11111A0C0C7BC2093060219
:1012400030930702409308025093090280916E0088
:10125000826080936E0091C0D0928900C092880015
:10126000209302023093030240930402509305023C
:1012700080916F00826080936F007FC0C092B30046
:101280002093D8013093D9014093DA015093DB01C8
:10129000809170008260809370006FC084E081CF85
:1012A00082E07FCF62E17AE780E090E0A5019401DF
:1012B0000E947B0C69017A0181E0C81AD108E1081B
:1012C000F1088FEFC816D104E104F10499F090F011
:1012D000D301C2012AE0B595A795979587952A95E0
:1012E000D1F76C017D0121E0C21AD108E108F108B3
:1012F00087E057CF86E055CF2FEFC216D104E10427
:10130000F10409F078F684E016CF8FEFC816D10407
:10131000E104F10459F150F162E17AE780E090E0F4
:10132000A50194010E947B0C69017A0181E0C81A31
:10133000D108E108F1082FEFC216D104E104F1044D
:1013400099F090F0D301C2013AE0B595A795979531
:1013500087953A95D1F76C017D0121E0C21AD10839
:10136000E108F10885E0E9CE84E0E7CE83E0E5CE50
:1013700061E089E00E94080374CEDF91CF911F9154
:10138000FF90EF90DF90CF90BF90AF909F908F90A5
:101390007F906F905F904F900895E8EEF1E0468166
:1013A000578160E070E0838594850C94260E0F933E
:1013B0001F93CF93DF93CDB7DEB729970FB6F8947D
:1013C000DEBF0FBECDBF8091F3019091F401892B58
:1013D00009F4B7C00E9444030091F9011091FA0189
:1013E0002091FB013091FC01601771078207930780
:1013F00040F46093F9017093FA018093FB0190939C
:10140000FC010091F9011091FA012091FB0130914A
:10141000FC01DC01CB01801B910BA20BB30B8C32C6
:101420009140A105B105B0F2F8948091EE01909140
:10143000EF019A838983E091F301F091F401DF01D8
:101440001196808189879091E801E091FD01F091EA
:10145000FE018091FF01992309F42EC09081982B01
:1014600098879081809589238F838F818C8388E0F2
:101470008B8358856F8149853B812C8189819A8135
:10148000508347FD252F3A952083262F39F0441F9E
:1014900000C000006083000000C0F2CF38E04D9132
:1014A00060830000019761F7F093FE01E093FD0176
:1014B00049873B832C8338C09081982B98879081F3
:1014C000809589238F838F818E8388E08D835885D3
:1014D0006F8149853D812E8189819A81508347FDA5
:1014E000252F00C000C0208300C000C000C000C085
:1014F00000C060830000262F3A9541F0441F000091
:1015000000C000C000C000C000C0E8CF38E04D916E
:1015100000C0608300C0019709F7F093FE01E093DB
:10152000FD0149873D832E839A83898378940E94A5
:1015300044036093F9017093FA018093FB01909347
:10154000FC0129960FB6F894DEBF0FBECDBFDF9128
:10155000CF911F910F9108958F929F92AF92BF925A
:10156000CF92DF92EF92FF92CF93DF932091EC0125
:101570003091ED018217930708F057C04B01AA2460
:10158000BB24F82DC52ED62EE72EFF24AC2DE42F3C
:101590002091F201222361F0829E40011124F92D55
:1015A0002C9D60011124AD2D249FE0011124ED2F0D
:1015B0003091F801B091F501E090F301F090F40161
:1015C0003B1308C09C01220F331F820F931F8E0D07
:1015D0009F1D19C0880F991F880F991F8E0D9F1D81
:1015E000472F552766277727EC01C30FD11D2223EC
:1015F00049F030E0249F7001259FF00C349FF00CDF
:1016000011244F2D48832091F501EC01C20FD11D0B
:10161000F8832091F601EC01C20FD11DA88320911F
:10162000F701DC01A20FB11DEC93DF91CF91FF9088
:10163000EF90DF90CF90BF90AF909F908F900895E4
:10164000789484B5826084BD84B5816084BD85B59D
:10165000826085BD85B5816085BD80916E008160A9
:1016600080936E001092810080918100826080934F
:101670008100809181008160809381008091800051
:101680008160809380008091B10084608093B1007C
:101690008091B00081608093B00080917A00846076
:1016A00080937A0080917A00826080937A008091A2
:1016B0007A00816080937A0080917A0080688093BC
:1016C0007A001092C10061E08EE00E94080361E0A0
:1016D00087E00E94080361E088E00E94080361E05F
:1016E00084E00E94080361E08AE00E94080361E050
:1016F00086E00E94080361E08FE00E94080361E039
:1017000080E10E94080361E081E10E94080361E03A
:1017100085E00E94080361E089E00E94080380914F
:10172000F0019091F10197FD08C061E00E9408036B
:1017300060E08091F0010E94990181E08093E901CD
:101740001092D0011092CF011092CE011092CD01D3
:101750000E946D0289E890E09093CC018093CB01C8
:1017600085E990E09093CA018093C90188E880934D
:10177000BA0080ED93E09093D2018093D10188E488
:1017800091E09093D4018093D3018BE490E00E9488
:10179000290760E086E00E9499010E94F4020E94FD
:1017A000830184EF91E00E94A30380ED97E00E9403
:1017B0009C0762E370E080E090E00E94690389E0AA
:1017C0000E94E601C0E0D0E06AE070E080E090E0D6
:1017D0000E9469032097C1F30E940000F5CF809119
:1017E000F3019091F4010E94980D8091F001909185
:1017F000F10197FD03C060E00C9408030895109276
:10180000DF011092DE0188EE93E0A0E0B0E080936B
:10181000E0019093E101A093E201B093E3018BE139
:1018200091E09093DD018093DC011092E901109228
:10183000F2011092F9011092FA011092FB0110923C
:10184000FC0182E08093F8018093F5011092F6018B
:1018500081E08093F7018093E80189E690E090931E
:10186000EF018093EE010E94000D9093F4018093AC
:10187000F301009761F029E6FC0111922A95E9F73E
:1018800083E290E09093ED018093EC0108C0109208
:10189000EF011092EE011092ED011092EC018EE03A
:1018A00090E09093F1018093F0018091E901882309
:1018B00041F061E08EE00E94080360E08EE00E944B
:1018C0009901E3EBF0E0E491F0E0EE0FFF1FE55645
:1018D000FF4F859194919093FE018093FD01E5E97E
:1018E000F0E0E491E093FF0183E290E09093EB015C
:1018F0008093EA010895052E97FB1EF400940E9440
:10190000920C57FD07D00E949A0C07FC03D04EF4AE
:101910000C94920C50954095309521953F4F4F4F28
:101920005F4F089590958095709561957F4F8F4F8B
:101930009F4F0895A1E21A2EAA1BBB1BFD010DC0EB
:10194000AA1FBB1FEE1FFF1FA217B307E407F5076F
:1019500020F0A21BB30BE40BF50B661F771F881F4B
:10196000991F1A9469F760957095809590959B01E1
:10197000AC01BD01CF010895A29FB001B39FC0018A
:10198000A39F700D811D1124911DB29F700D811DAB
:101990001124911D089597FB072E16F4009407D08B
:1019A00077FD09D00E94E60C07FC05D03EF4909527
:1019B00081959F4F0895709561957F4F08950E947E
:1019C000BC0CB7FF0895821B930B0895AA1BBB1B89
:1019D00051E107C0AA1FBB1FA617B70710F0A61B2F
:1019E000B70B881F991F5A95A9F780959095BC0150
:1019F000CD010895EE0FFF1F0590F491E02D09949D
:101A00000F931F93CF93DF938230910510F482E000
:101A100090E0E0910C02F0910D0220E030E0A0E0B7
:101A2000B0E0309719F1408151810281138148174C
:101A30005907C8F08417950769F4109731F012968A
:101A40000C93129713961C9327C000930C021093CB
:101A50000D0222C02115310519F04217530718F461
:101A60009A01BD01EF01DF01F801DBCF211531053E
:101A7000F9F0281B390B2430310580F48A819B81D1
:101A80006115710521F0FB019383828304C090935B
:101A90000D0280930C02FE01329644C0FE01E20F5B
:101AA000F31F8193919322503109398328833AC0DF
:101AB00020910A0230910B02232B41F42091030163
:101AC0003091040130930B0220930A02209101010E
:101AD000309102012115310541F42DB73EB74091F7
:101AE000050150910601241B350BE0910A02F0918B
:101AF0000B02E217F307A0F42E1B3F0B2817390740
:101B000078F0AC014E5F5F4F2417350748F04E0F59
:101B10005F1F50930B0240930A028193919302C07E
:101B2000E0E0F0E0CF01DF91CF911F910F91089598
:101B3000CF93DF93009709F481C0FC0132971382A1
:101B40001282A0910C02B0910D02109781F42081B5
:101B50003181820F931F20910A0230910B022817C6
:101B6000390751F5F0930B02E0930A0267C0ED01CB
:101B700020E030E0CE17DF0740F44A815B819E0110
:101B800041155105F1F0EA01F5CFD383C2834081BD
:101B90005181840F951FC817D90759F488819981FD
:101BA000840F951F0296918380838A819B81938302
:101BB00082832115310529F4F0930D02E0930C0284
:101BC0003DC0E901FB83EA8349915991C40FD51FB8
:101BD000EC17FD0761F480819181840F951F0296B7
:101BE000E90199838883828193819B838A83E0E0E2
:101BF000F0E012968D919C911397009719F0FD01DA
:101C0000DC01F7CF8D919C9111979D012E5F3F4F85
:101C1000820F931F20910A0230910B022817390777
:101C200069F4309729F410920D0210920C0202C050
:101C300013821282B0930B02A0930A02DF91CF911C
:101C4000089581E090E0F8940C942D0EDC0101C021
:101C50006D9341505040E0F7089510E0CEE5D0E09C
:101C600004C0FE010E94FA0C2196CF35D107C9F7B6
:041C7000F894FFCF16
:101C7400FF00000E02200001000200040008001012
:101C840000200040008000000000006C013D017E47
:0C1C9400011101350121011201030000C3
:107800000C94343C0C94513C0C94513C0C94513CE1
:107810000C94513C0C94513C0C94513C0C94513CB4
:107820000C94513C0C94513C0C94513C0C94513CA4
:107830000C94513C0C94513C0C94513C0C94513C94
:107840000C94513C0C94513C0C94513C0C94513C84
:107850000C94513C0C94513C0C94513C0C94513C74
:107860000C94513C0C94513C11241FBECFEFD8E036
:10787000DEBFCDBF11E0A0E0B1E0E6ECFDE702C065
:1078800005900D92A230B107D9F722E0A2E0B1E055
:1078900001C01D92AD30B207E1F70E940A3D0C9481
:1078A000E13E0C94003C9091C00095FFFCCF80938A
:1078B000C6000895CF93982F8595859585958595D4
:1078C000805D9F709A3014F0C7E501C0C0E3C90F16
:1078D0000E94533C8C2FCF910C94533CCF92DF925B
:1078E000EF92FF92C12CD12C76018091C00087FDD0
:1078F00013C08FEFC81AD80AE80AF80A81E4C8163C
:1079000082E4D8068FE0E806F10478F3E091020102
:10791000F09103010995E9CF8091C600FF90EF90A7
:10792000DF90CF900895CF930E946E3CC82F0E94A5
:10793000533CC13614F089EA03C0C0331CF080ED1B
:107940008C0F01C08C2FCF910895CF930E94933C50
:10795000C82F0E94933C90E1C99F800D1124CF91C4
:107960000895CF93C82FCC2321F00E946E3CC150C4
:10797000FACFCF910895CF93C82F0E946E3C8032EA
:1079800051F484E10E94533C8C2F0E94533C80E1CF
:10799000CF910C94533C809104018F5F809304013C
:1079A000853031F4E0910201F0910301CF91099407
:1079B000CF9108950E946E3C803231F484E10E94A0
:1079C000533C80E10C94533C809104018F5F809381
:1079D0000401853029F4E0910201F091030109943A
:1079E00008958823B1F02D9A2FEF31EE94E02150C5
:1079F00030409040E1F700C000002D982FEF31EEAD
:107A000094E0215030409040E1F700C000008150E8
:107A1000E8CF08950000E0E0F0E0E49180E1809399
:107A2000C4001092C50088E18093C10086E0809375
:107A3000C2005098589A259A81E00E94F13CFF2498
:107A4000F3940E946E3C803309F442C08133E1F428
:107A50000E946E3C803209F0A6C184E10E94533C32
:107A600081E40E94533C86E50E94533C82E50E94DB
:107A7000533C80E20E94533C89E40E94533C83E5DE
:107A80000E94533C80E586C1803439F40E946E3CEC
:107A90008638F0F00E946E3C1BC08134A1F40E9435
:107AA0006E3C803811F482E003C0813821F481E01B
:107AB0000E94BB3CC6CF823811F480E1F9CF8839EF
:107AC000C9F583E0F5CF823431F484E10E94B13C02
:107AD0000E94DA3CB6CF853411F485E0F7CF982FB9
:107AE0009D7F9035A9F3813599F3853549F40E943E
:107AF0006E3C809306010E946E3C80930701E8CFA4
:107B00008635D1F40E946E3C803389F40E946E3C2D
:107B10000E946E3C182F0E946E3C111102C08EE133
:107B2000C7CF113011F485E9C3CF8FE0C1CF83E017
:107B30000E94B13C80E0BCCF843609F0C6C00E94F0
:107B40006E3C809309020E946E3C809308028091F3
:107B50000C028E7F80930C020E946E3C853429F4C7
:107B600080910C02816080930C0208E011E020916A
:107B7000080230910902C80188509140821793078A
:107B800030F40E946E3CF80181938F01F0CF0E9487
:107B90006E3C803209F007C180910C0220910601F1
:107BA0003091070180FF29C0220F331F3093070156
:107BB00020930601E8E0F1E02091080230910902EB
:107BC000CF01885091408217930708F07CC0F99943
:107BD000FECF809106019091070192BD81BD8191F8
:107BE00080BDFA9AF99A8091060190910701019659
:107BF0009093070180930601DFCF80910701880FE2
:107C0000880B8F2180930B02220F331F30930701C3
:107C1000209306018091080280FF09C0809108022C
:107C20009091090201969093090280930802F894BA
:107C3000F999FECF1127E0910601F0910701C8E004
:107C4000D1E08091080290910902103091F40091E6
:107C5000570001700130D9F303E000935700E89515
:107C60000091570001700130D9F301E100935700F2
:107C7000E895099019900091570001700130D9F3EF
:107C800001E000935700E8951395103498F0112700
:107C90000091570001700130D9F305E000935700BF
:107CA000E8950091570001700130D9F301E100938C
:107CB0005700E8953296029709F0C7CF103011F0BF
:107CC0000296E5CF112484E165C0843709F052C0E3
:107CD0000E946E3C809309020E946E3C80930802D1
:107CE0008091060190910701880F991F90930701D9
:107CF000809306010E946E3C90910C02853411F431
:107D0000916001C09E7F90930C020E946E3C803275
:107D100009F097CE84E10E94533C00E010E080918E
:107D200008029091090208171907B0F580910C021A
:107D300080FF0BC0F999FECF809106019091070159
:107D400092BD81BDF89A80B507C081FD07C0E09162
:107D50000601F091070184910E94533C8091060135
:107D600090910701019690930701809306010F5FA0
:107D70001F4FD5CF8537A1F40E946E3C803299F415
:107D800084E10E94533C8EE10E94533C85E90E94AD
:107D9000533C8FE00E94533C80E10E94533C51CE03
:107DA000863709F4C7CE809104018F5F8093040168
:107DB000853009F046CEE0910201F091030109956A
:067DC00040CEF894FFCF55
:027DC60080003B
:040000030000780081
:00000001FF
